:100000000C9434000C943E000C943E000C943E0082
:100010000C943E000C943E000C943E000C943E0068
:100020000C943E000C943E000C943E000C943E0058
:100030000C943E000C943E000C943E000C943E0048
:100040000C943E000C943E000C943E000C943E0038
:100050000C943E000C943E000C943E000C943E0028
:100060000C943E000C943E0011241FBECFEFD8E04C
:10007000DEBFCDBF0E9436010C94F8020C94000044
:1000800091E0811101C090E085B1892B85B95C9A1E
:100090005C98289808950F931F93CF93DF93082FB0
:1000A000162FC1E0623009F0C0E08C2F0E944000A2
:1000B000D1E0113009F0D0E08D2F0E9440008D2F4B
:1000C0000E94400011E0013009F010E0812F0E94F1
:1000D0004000D1E0023009F0D0E08D2F0E944000B6
:1000E000812F0E9440008D2F0E9440008C2F0E9483
:1000F00040002C9A2C98DF91CF911F910F91089579
:100100008093B3008093B40067BD68BD08958AB141
:1001100080698AB984B1816184B960E080E00E941D
:100120004B00239A539A8AB180668AB9E0EBF0E0DB
:100130008081836A8083E1EBF0E08081816080834D
:1001400084B5836A84BD85B5816085BD6FE78FE71F
:100150000E94800084B1866084B9E0E8F0E080818C
:10016000826A8083E1E8F0E080818B61808387E8A8
:1001700093E1909387008093860087E691E09093C7
:100180008B0080938A0086E991E0909389008093A8
:1001900088000895CF92DF92EF92FF92CF93C62FFF
:1001A000682F70E080E090E00E94FF0120E030E0E6
:1001B00040E85BE30E948B0220E030E844E054E436
:1001C0000E948B0220E030E042EC52E40E94620187
:1001D0000E94CE016B017C016C2F70E080E090E00A
:1001E0000E94FF0120E030E040E85BE30E948B02C8
:1001F00020E030E84DED53E40E948B0220E030E037
:100200004BE353E40E9462010E94CE01D0928B0026
:10021000C0928A007093890060938800CF91FF900C
:10022000EF90DF90CF900895E5ECF0E0808180833F
:10023000E4ECF0E0808187668083E1ECF0E080818F
:1002400088618083E2ECF0E080818E608083089595
:100250008091C00087FFFCCF8091C60008959091E7
:10026000C00095FFFCCF8093C60008950E948700D0
:100270000E9414010E9428018F3FE1F70E9428018B
:10028000C82F0E942801082F0E942801F82E0E94E2
:100290002801D82F0E942801182F6C2F6170C0FFF1
:1002A00062E0C1FD02C082E001C081E00E944B001B
:1002B0006F2D802F0E948000612F8D2F0E94CA0019
:1002C000D9CF5058BB27AA270E9479010C9451021C
:1002D0000E94430238F00E944A0220F039F49F3F06
:1002E00019F426F40C9440020EF4E095E7FB0C940C
:1002F0003A02E92F0E94620258F3BA1762077307A5
:100300008407950720F079F4A6F50C9484020EF486
:10031000E0950B2EBA2FA02D0B01B90190010C0115
:10032000CA01A0011124FF27591B99F0593F50F42D
:10033000503E68F11A16F040A22F232F342F442785
:10034000585FF3CF469537952795A795F04053957D
:10035000C9F77EF41F16BA0B620B730B840BBAF04D
:100360009150A1F0FF0FBB1F661F771F881FC2F7B8
:100370000EC0BA0F621F731F841F48F487957795CC
:100380006795B795F7959E3F08F0B0CF9395880F86
:1003900008F09927EE0F9795879508950E946A02B5
:1003A00088F09F5798F0B92F9927B751B0F0E1F036
:1003B000660F771F881F991F1AF0BA95C9F714C0E6
:1003C000B13091F00E948402B1E008950C9484024F
:1003D000672F782F8827B85F39F0B93FCCF386951F
:1003E00077956795B395D9F73EF49095809570957C
:1003F00061957F4F8F4F9F4F0895E89409C097FBF9
:100400003EF490958095709561957F4F8F4F9F4FEB
:100410009923A9F0F92F96E9BB279395F69587952F
:1004200077956795B795F111F8CFFAF4BB0F11F4F2
:1004300060FF1BC06F5F7F4F8F4F9F4F16C0882399
:1004400011F096E911C0772321F09EE8872F762FCF
:1004500005C0662371F096E8862F70E060E02AF010
:100460009A95660F771F881FDAF7880F96958795FC
:1004700097F9089597F99F6780E870E060E0089524
:100480009FEF80EC089500240A94161617061806AC
:100490000906089500240A94121613061406050688
:1004A0000895092E0394000C11F4882352F0BB0F19
:1004B00040F4BF2B11F460FF04C06F5F7F4F8F4F7C
:1004C0009F4F089557FD9058440F551F59F05F3FB7
:1004D00071F04795880F97FB991F61F09F3F79F066
:1004E00087950895121613061406551FF2CF4695E8
:1004F000F1DF08C0161617061806991FF1CF86956A
:100500007105610508940895E894BB27662777274D
:10051000CB0197F908950E949E020C9451020E940B
:10052000430238F00E944A0220F0952311F00C9407
:100530003A020C94400211240C9485020E9462023B
:1005400070F3959FC1F3950F50E0551F629FF00126
:10055000729FBB27F00DB11D639FAA27F00DB11D3F
:10056000AA1F649F6627B00DA11D661F829F2227C8
:10057000B00DA11D621F739FB00DA11D621F839F4F
:10058000A00D611D221F749F3327A00D611D231F25
:10059000849F600D211D822F762F6A2F11249F5773
:1005A00050409AF0F1F088234AF0EE0FFF1FBB1F76
:1005B000661F771F881F91505040A9F79E3F510535
:1005C00080F00C943A020C9485025F3FE4F3983E6D
:1005D000D4F3869577956795B795F795E7959F5FDF
:1005E000C1F7FE2B880F911D9695879597F9089571
:0405F000F894FFCFAD
:00000001FF
